{
  "abi": [
    {
      "inputs": [
        {
          "internalType": "address",
          "name": "_userAddress",
          "type": "address"
        }
      ],
      "name": "ShowBalance",
      "outputs": [
        {
          "internalType": "uint256",
          "name": "",
          "type": "uint256"
        }
      ],
      "stateMutability": "view",
      "type": "function"
    },
    {
      "inputs": [],
      "name": "ShowTotalBalance",
      "outputs": [
        {
          "internalType": "uint256",
          "name": "",
          "type": "uint256"
        }
      ],
      "stateMutability": "view",
      "type": "function"
    },
    {
      "inputs": [
        {
          "internalType": "uint256",
          "name": "_amount",
          "type": "uint256"
        }
      ],
      "name": "Withdraw",
      "outputs": [],
      "stateMutability": "payable",
      "type": "function"
    },
    {
      "inputs": [],
      "name": "addBalance",
      "outputs": [],
      "stateMutability": "payable",
      "type": "function"
    },
    {
      "inputs": [
        {
          "internalType": "address",
          "name": "_userAddress",
          "type": "address"
        }
      ],
      "name": "getBalance",
      "outputs": [
        {
          "internalType": "uint256",
          "name": "",
          "type": "uint256"
        }
      ],
      "stateMutability": "view",
      "type": "function"
    },
    {
      "inputs": [
        {
          "internalType": "uint256",
          "name": "_amount",
          "type": "uint256"
        },
        {
          "internalType": "address",
          "name": "_toSend",
          "type": "address"
        }
      ],
      "name": "transfer",
      "outputs": [],
      "stateMutability": "payable",
      "type": "function"
    }
  ],
  "bytecode": "60806040526000805534801561001457600080fd5b50610579806100246000396000f3fe6080604052600436106100555760003560e01c8063071de5851461005a57806321c48c0d1461007d5780635b6b431d146100b3578063b163cc38146100c8578063b7760c8f146100d0578063f8b2cb4f146100e3575b600080fd5b34801561006657600080fd5b506000545b60405190815260200160405180910390f35b34801561008957600080fd5b5061006b61009836600461045d565b6001600160a01b031660009081526001602052604090205490565b6100c66100c1366004610478565b610103565b005b6100c66101dd565b6100c66100de366004610491565b61022f565b3480156100ef57600080fd5b5061006b6100fe36600461045d565b6102fc565b61010c336102fc565b81818111156101595760405162461bcd60e51b8152602060048201526014602482015273696e73756666696369656e742042616c616e636560601b60448201526064015b60405180910390fd5b3361016381610393565b6040516001600160a01b0382169085156108fc029086906000818181858888f19350505050158015610199573d6000803e3d6000fd5b50336000908152600160205260409020546101b59085906104d3565b33600090815260016020526040812091909155546101d49085906104d3565b60005550505050565b3360009081526001602052604081208190556101fa9034906104ea565b33600090815260016020526040812091909155546102199034906104ea565b6000908155338152600260205260409020429055565b610238336102fc565b82818111156102805760405162461bcd60e51b8152602060048201526014602482015273696e73756666696369656e742042616c616e636560601b6044820152606401610150565b61028933610393565b61029283610393565b336000908152600160205260409020546102ad9085906104d3565b33600090815260016020526040808220929092556001600160a01b038516815220546102da9085906104ea565b6001600160a01b03909316600090815260016020526040902092909255505050565b6001600160a01b038116600090815260026020526040812054819061032190426104d3565b9050606461033161223883610502565b6001600160a01b038516600090815260016020526040902054610355906007610524565b61035f9190610524565b6103699190610502565b6001600160a01b03841660009081526001602052604090205461038c91906104ea565b9392505050565b6001600160a01b0381166000908152600260205260408120546103b690426104d3565b905060646103c661223883610502565b6001600160a01b0384166000908152600160205260409020546103e99190610524565b6103f4906007610524565b6103fe9190610502565b6001600160a01b03831660009081526001602052604090205461042191906104ea565b6001600160a01b0390921660009081526001602052604090209190915550565b80356001600160a01b038116811461045857600080fd5b919050565b60006020828403121561046f57600080fd5b61038c82610441565b60006020828403121561048a57600080fd5b5035919050565b600080604083850312156104a457600080fd5b823591506104b460208401610441565b90509250929050565b634e487b7160e01b600052601160045260246000fd5b6000828210156104e5576104e56104bd565b500390565b600082198211156104fd576104fd6104bd565b500190565b60008261051f57634e487b7160e01b600052601260045260246000fd5b500490565b600081600019048311821515161561053e5761053e6104bd565b50029056fea2646970667358221220168bd8cc6ea0d868ca527ff7fc2892471fdd36efc43b0c1dca24515edc42555364736f6c634300080f0033",
  "bytecodeSha1": "34d1dc52ea10b3d2256194e57552e82912749674",
  "compiler": {
    "evm_version": "istanbul",
    "optimizer": {
      "enabled": true,
      "runs": 200
    },
    "version": "0.8.15+commit.e14f2714"
  },
  "contractName": "SmartBankAccount",
  "language": "Solidity",
  "natspec": {
    "kind": "dev",
    "methods": {},
    "version": 1
  },
  "opcodes": "PUSH1 0x80 PUSH1 0x40 MSTORE PUSH1 0x4 CALLDATASIZE LT PUSH2 0x55 JUMPI PUSH1 0x0 CALLDATALOAD PUSH1 0xE0 SHR DUP1 PUSH4 0x71DE585 EQ PUSH2 0x5A JUMPI DUP1 PUSH4 0x21C48C0D EQ PUSH2 0x7D JUMPI DUP1 PUSH4 0x5B6B431D EQ PUSH2 0xB3 JUMPI DUP1 PUSH4 0xB163CC38 EQ PUSH2 0xC8 JUMPI DUP1 PUSH4 0xB7760C8F EQ PUSH2 0xD0 JUMPI DUP1 PUSH4 0xF8B2CB4F EQ PUSH2 0xE3 JUMPI JUMPDEST PUSH1 0x0 DUP1 REVERT JUMPDEST CALLVALUE DUP1 ISZERO PUSH2 0x66 JUMPI PUSH1 0x0 DUP1 REVERT JUMPDEST POP PUSH1 0x0 SLOAD JUMPDEST PUSH1 0x40 MLOAD SWAP1 DUP2 MSTORE PUSH1 0x20 ADD PUSH1 0x40 MLOAD DUP1 SWAP2 SUB SWAP1 RETURN JUMPDEST CALLVALUE DUP1 ISZERO PUSH2 0x89 JUMPI PUSH1 0x0 DUP1 REVERT JUMPDEST POP PUSH2 0x6B PUSH2 0x98 CALLDATASIZE PUSH1 0x4 PUSH2 0x45D JUMP JUMPDEST PUSH1 0x1 PUSH1 0x1 PUSH1 0xA0 SHL SUB AND PUSH1 0x0 SWAP1 DUP2 MSTORE PUSH1 0x1 PUSH1 0x20 MSTORE PUSH1 0x40 SWAP1 KECCAK256 SLOAD SWAP1 JUMP JUMPDEST PUSH2 0xC6 PUSH2 0xC1 CALLDATASIZE PUSH1 0x4 PUSH2 0x478 JUMP JUMPDEST PUSH2 0x103 JUMP JUMPDEST STOP JUMPDEST PUSH2 0xC6 PUSH2 0x1DD JUMP JUMPDEST PUSH2 0xC6 PUSH2 0xDE CALLDATASIZE PUSH1 0x4 PUSH2 0x491 JUMP JUMPDEST PUSH2 0x22F JUMP JUMPDEST CALLVALUE DUP1 ISZERO PUSH2 0xEF JUMPI PUSH1 0x0 DUP1 REVERT JUMPDEST POP PUSH2 0x6B PUSH2 0xFE CALLDATASIZE PUSH1 0x4 PUSH2 0x45D JUMP JUMPDEST PUSH2 0x2FC JUMP JUMPDEST PUSH2 0x10C CALLER PUSH2 0x2FC JUMP JUMPDEST DUP2 DUP2 DUP2 GT ISZERO PUSH2 0x159 JUMPI PUSH1 0x40 MLOAD PUSH3 0x461BCD PUSH1 0xE5 SHL DUP2 MSTORE PUSH1 0x20 PUSH1 0x4 DUP3 ADD MSTORE PUSH1 0x14 PUSH1 0x24 DUP3 ADD MSTORE PUSH20 0x696E73756666696369656E742042616C616E6365 PUSH1 0x60 SHL PUSH1 0x44 DUP3 ADD MSTORE PUSH1 0x64 ADD JUMPDEST PUSH1 0x40 MLOAD DUP1 SWAP2 SUB SWAP1 REVERT JUMPDEST CALLER PUSH2 0x163 DUP2 PUSH2 0x393 JUMP JUMPDEST PUSH1 0x40 MLOAD PUSH1 0x1 PUSH1 0x1 PUSH1 0xA0 SHL SUB DUP3 AND SWAP1 DUP6 ISZERO PUSH2 0x8FC MUL SWAP1 DUP7 SWAP1 PUSH1 0x0 DUP2 DUP2 DUP2 DUP6 DUP9 DUP9 CALL SWAP4 POP POP POP POP ISZERO DUP1 ISZERO PUSH2 0x199 JUMPI RETURNDATASIZE PUSH1 0x0 DUP1 RETURNDATACOPY RETURNDATASIZE PUSH1 0x0 REVERT JUMPDEST POP CALLER PUSH1 0x0 SWAP1 DUP2 MSTORE PUSH1 0x1 PUSH1 0x20 MSTORE PUSH1 0x40 SWAP1 KECCAK256 SLOAD PUSH2 0x1B5 SWAP1 DUP6 SWAP1 PUSH2 0x4D3 JUMP JUMPDEST CALLER PUSH1 0x0 SWAP1 DUP2 MSTORE PUSH1 0x1 PUSH1 0x20 MSTORE PUSH1 0x40 DUP2 KECCAK256 SWAP2 SWAP1 SWAP2 SSTORE SLOAD PUSH2 0x1D4 SWAP1 DUP6 SWAP1 PUSH2 0x4D3 JUMP JUMPDEST PUSH1 0x0 SSTORE POP POP POP POP JUMP JUMPDEST CALLER PUSH1 0x0 SWAP1 DUP2 MSTORE PUSH1 0x1 PUSH1 0x20 MSTORE PUSH1 0x40 DUP2 KECCAK256 DUP2 SWAP1 SSTORE PUSH2 0x1FA SWAP1 CALLVALUE SWAP1 PUSH2 0x4EA JUMP JUMPDEST CALLER PUSH1 0x0 SWAP1 DUP2 MSTORE PUSH1 0x1 PUSH1 0x20 MSTORE PUSH1 0x40 DUP2 KECCAK256 SWAP2 SWAP1 SWAP2 SSTORE SLOAD PUSH2 0x219 SWAP1 CALLVALUE SWAP1 PUSH2 0x4EA JUMP JUMPDEST PUSH1 0x0 SWAP1 DUP2 SSTORE CALLER DUP2 MSTORE PUSH1 0x2 PUSH1 0x20 MSTORE PUSH1 0x40 SWAP1 KECCAK256 TIMESTAMP SWAP1 SSTORE JUMP JUMPDEST PUSH2 0x238 CALLER PUSH2 0x2FC JUMP JUMPDEST DUP3 DUP2 DUP2 GT ISZERO PUSH2 0x280 JUMPI PUSH1 0x40 MLOAD PUSH3 0x461BCD PUSH1 0xE5 SHL DUP2 MSTORE PUSH1 0x20 PUSH1 0x4 DUP3 ADD MSTORE PUSH1 0x14 PUSH1 0x24 DUP3 ADD MSTORE PUSH20 0x696E73756666696369656E742042616C616E6365 PUSH1 0x60 SHL PUSH1 0x44 DUP3 ADD MSTORE PUSH1 0x64 ADD PUSH2 0x150 JUMP JUMPDEST PUSH2 0x289 CALLER PUSH2 0x393 JUMP JUMPDEST PUSH2 0x292 DUP4 PUSH2 0x393 JUMP JUMPDEST CALLER PUSH1 0x0 SWAP1 DUP2 MSTORE PUSH1 0x1 PUSH1 0x20 MSTORE PUSH1 0x40 SWAP1 KECCAK256 SLOAD PUSH2 0x2AD SWAP1 DUP6 SWAP1 PUSH2 0x4D3 JUMP JUMPDEST CALLER PUSH1 0x0 SWAP1 DUP2 MSTORE PUSH1 0x1 PUSH1 0x20 MSTORE PUSH1 0x40 DUP1 DUP3 KECCAK256 SWAP3 SWAP1 SWAP3 SSTORE PUSH1 0x1 PUSH1 0x1 PUSH1 0xA0 SHL SUB DUP6 AND DUP2 MSTORE KECCAK256 SLOAD PUSH2 0x2DA SWAP1 DUP6 SWAP1 PUSH2 0x4EA JUMP JUMPDEST PUSH1 0x1 PUSH1 0x1 PUSH1 0xA0 SHL SUB SWAP1 SWAP4 AND PUSH1 0x0 SWAP1 DUP2 MSTORE PUSH1 0x1 PUSH1 0x20 MSTORE PUSH1 0x40 SWAP1 KECCAK256 SWAP3 SWAP1 SWAP3 SSTORE POP POP POP JUMP JUMPDEST PUSH1 0x1 PUSH1 0x1 PUSH1 0xA0 SHL SUB DUP2 AND PUSH1 0x0 SWAP1 DUP2 MSTORE PUSH1 0x2 PUSH1 0x20 MSTORE PUSH1 0x40 DUP2 KECCAK256 SLOAD DUP2 SWAP1 PUSH2 0x321 SWAP1 TIMESTAMP PUSH2 0x4D3 JUMP JUMPDEST SWAP1 POP PUSH1 0x64 PUSH2 0x331 PUSH2 0x2238 DUP4 PUSH2 0x502 JUMP JUMPDEST PUSH1 0x1 PUSH1 0x1 PUSH1 0xA0 SHL SUB DUP6 AND PUSH1 0x0 SWAP1 DUP2 MSTORE PUSH1 0x1 PUSH1 0x20 MSTORE PUSH1 0x40 SWAP1 KECCAK256 SLOAD PUSH2 0x355 SWAP1 PUSH1 0x7 PUSH2 0x524 JUMP JUMPDEST PUSH2 0x35F SWAP2 SWAP1 PUSH2 0x524 JUMP JUMPDEST PUSH2 0x369 SWAP2 SWAP1 PUSH2 0x502 JUMP JUMPDEST PUSH1 0x1 PUSH1 0x1 PUSH1 0xA0 SHL SUB DUP5 AND PUSH1 0x0 SWAP1 DUP2 MSTORE PUSH1 0x1 PUSH1 0x20 MSTORE PUSH1 0x40 SWAP1 KECCAK256 SLOAD PUSH2 0x38C SWAP2 SWAP1 PUSH2 0x4EA JUMP JUMPDEST SWAP4 SWAP3 POP POP POP JUMP JUMPDEST PUSH1 0x1 PUSH1 0x1 PUSH1 0xA0 SHL SUB DUP2 AND PUSH1 0x0 SWAP1 DUP2 MSTORE PUSH1 0x2 PUSH1 0x20 MSTORE PUSH1 0x40 DUP2 KECCAK256 SLOAD PUSH2 0x3B6 SWAP1 TIMESTAMP PUSH2 0x4D3 JUMP JUMPDEST SWAP1 POP PUSH1 0x64 PUSH2 0x3C6 PUSH2 0x2238 DUP4 PUSH2 0x502 JUMP JUMPDEST PUSH1 0x1 PUSH1 0x1 PUSH1 0xA0 SHL SUB DUP5 AND PUSH1 0x0 SWAP1 DUP2 MSTORE PUSH1 0x1 PUSH1 0x20 MSTORE PUSH1 0x40 SWAP1 KECCAK256 SLOAD PUSH2 0x3E9 SWAP2 SWAP1 PUSH2 0x524 JUMP JUMPDEST PUSH2 0x3F4 SWAP1 PUSH1 0x7 PUSH2 0x524 JUMP JUMPDEST PUSH2 0x3FE SWAP2 SWAP1 PUSH2 0x502 JUMP JUMPDEST PUSH1 0x1 PUSH1 0x1 PUSH1 0xA0 SHL SUB DUP4 AND PUSH1 0x0 SWAP1 DUP2 MSTORE PUSH1 0x1 PUSH1 0x20 MSTORE PUSH1 0x40 SWAP1 KECCAK256 SLOAD PUSH2 0x421 SWAP2 SWAP1 PUSH2 0x4EA JUMP JUMPDEST PUSH1 0x1 PUSH1 0x1 PUSH1 0xA0 SHL SUB SWAP1 SWAP3 AND PUSH1 0x0 SWAP1 DUP2 MSTORE PUSH1 0x1 PUSH1 0x20 MSTORE PUSH1 0x40 SWAP1 KECCAK256 SWAP2 SWAP1 SWAP2 SSTORE POP JUMP JUMPDEST DUP1 CALLDATALOAD PUSH1 0x1 PUSH1 0x1 PUSH1 0xA0 SHL SUB DUP2 AND DUP2 EQ PUSH2 0x458 JUMPI PUSH1 0x0 DUP1 REVERT JUMPDEST SWAP2 SWAP1 POP JUMP JUMPDEST PUSH1 0x0 PUSH1 0x20 DUP3 DUP5 SUB SLT ISZERO PUSH2 0x46F JUMPI PUSH1 0x0 DUP1 REVERT JUMPDEST PUSH2 0x38C DUP3 PUSH2 0x441 JUMP JUMPDEST PUSH1 0x0 PUSH1 0x20 DUP3 DUP5 SUB SLT ISZERO PUSH2 0x48A JUMPI PUSH1 0x0 DUP1 REVERT JUMPDEST POP CALLDATALOAD SWAP2 SWAP1 POP JUMP JUMPDEST PUSH1 0x0 DUP1 PUSH1 0x40 DUP4 DUP6 SUB SLT ISZERO PUSH2 0x4A4 JUMPI PUSH1 0x0 DUP1 REVERT JUMPDEST DUP3 CALLDATALOAD SWAP2 POP PUSH2 0x4B4 PUSH1 0x20 DUP5 ADD PUSH2 0x441 JUMP JUMPDEST SWAP1 POP SWAP3 POP SWAP3 SWAP1 POP JUMP JUMPDEST PUSH4 0x4E487B71 PUSH1 0xE0 SHL PUSH1 0x0 MSTORE PUSH1 0x11 PUSH1 0x4 MSTORE PUSH1 0x24 PUSH1 0x0 REVERT JUMPDEST PUSH1 0x0 DUP3 DUP3 LT ISZERO PUSH2 0x4E5 JUMPI PUSH2 0x4E5 PUSH2 0x4BD JUMP JUMPDEST POP SUB SWAP1 JUMP JUMPDEST PUSH1 0x0 DUP3 NOT DUP3 GT ISZERO PUSH2 0x4FD JUMPI PUSH2 0x4FD PUSH2 0x4BD JUMP JUMPDEST POP ADD SWAP1 JUMP JUMPDEST PUSH1 0x0 DUP3 PUSH2 0x51F JUMPI PUSH4 0x4E487B71 PUSH1 0xE0 SHL PUSH1 0x0 MSTORE PUSH1 0x12 PUSH1 0x4 MSTORE PUSH1 0x24 PUSH1 0x0 REVERT JUMPDEST POP DIV SWAP1 JUMP JUMPDEST PUSH1 0x0 DUP2 PUSH1 0x0 NOT DIV DUP4 GT DUP3 ISZERO ISZERO AND ISZERO PUSH2 0x53E JUMPI PUSH2 0x53E PUSH2 0x4BD JUMP JUMPDEST POP MUL SWAP1 JUMP INVALID LOG2 PUSH5 0x6970667358 0x22 SLT KECCAK256 AND DUP12 0xD8 0xCC PUSH15 0xA0D868CA527FF7FC2892471FDD36EF 0xC4 EXTCODESIZE 0xC SAR 0xCA 0x24 MLOAD 0x5E 0xDC TIMESTAMP SSTORE MSTORE8 PUSH5 0x736F6C6343 STOP ADDMOD 0xF STOP CALLER ",
  "sha1": "78fcacc1e3f67e64082739b2112e342319837cd0",
  "source": "pragma solidity ^0.8.15;\n\ncontract SmartBankAccount{\n    \n    uint totalBankBalance = 0;\n   \n\n    function ShowTotalBalance() public view returns(uint){\n        return totalBankBalance;\n    }\n\n     mapping( address=>uint) Balance;\n     mapping(address=>uint) TimeWhileDeposit;\n\n    function addBalance() public payable{\n        Balance[msg.sender]=0;\n        Balance[msg.sender]=Balance[msg.sender]+msg.value;\n        totalBankBalance = totalBankBalance + msg.value;\n        TimeWhileDeposit[msg.sender]= block.timestamp;\n    }\n     \n    function ShowBalance(address _userAddress) public view returns(uint){\n        return Balance[_userAddress];\n    }\n\n    function Intrest(address _userAddress) internal  {\n        uint presentTime;\n        presentTime = block.timestamp-TimeWhileDeposit[_userAddress];\n        Balance[_userAddress] = Balance[_userAddress]+(Balance[_userAddress]* uint(presentTime/(365*24))*7/100);\n    }\n\n    function getBalance(address _userAddress) public view returns(uint){ \n       uint presentTime;\n       presentTime = block.timestamp-TimeWhileDeposit[_userAddress];\n       return Balance[_userAddress]+(Balance[_userAddress]*7*uint(presentTime/(365*24))/100);\n    }\n\n    modifier balance(uint _balance, uint _amount) {\n           require( _amount <= _balance , \"insufficient Balance\");\n           _;\n     }\n\n     function transfer(uint _amount,address _toSend) public payable balance(getBalance(msg.sender),_amount){\n         Intrest(msg.sender);\n         Intrest(_toSend);\n         Balance[msg.sender]=Balance[msg.sender]-_amount;\n         Balance[_toSend] = Balance[_toSend] + _amount;\n     }\n\n    function Withdraw(uint _amount) public payable balance(getBalance(msg.sender),_amount){\n        address payable userAddress = payable(msg.sender);\n        Intrest(msg.sender);\n        userAddress.transfer(_amount);\n        Balance[msg.sender]=Balance[msg.sender]-_amount;\n        totalBankBalance = totalBankBalance - _amount;\n    }\n}\n",
  "sourcePath": "contracts/baanking sytem.sol",
  "type": "contract"
}